{
  "contractName": "SupplyChain",
  "abi": [
    {
      "anonymous": false,
      "inputs": [
        {
          "indexed": false,
          "internalType": "uint256",
          "name": "index",
          "type": "uint256"
        }
      ],
      "name": "Added",
      "type": "event"
    },
    {
      "constant": true,
      "inputs": [
        {
          "internalType": "string",
          "name": "_a",
          "type": "string"
        },
        {
          "internalType": "string",
          "name": "_b",
          "type": "string"
        }
      ],
      "name": "concat",
      "outputs": [
        {
          "internalType": "string",
          "name": "",
          "type": "string"
        }
      ],
      "payable": false,
      "stateMutability": "pure",
      "type": "function"
    },
    {
      "constant": false,
      "inputs": [
        {
          "internalType": "string",
          "name": "_text",
          "type": "string"
        },
        {
          "internalType": "string",
          "name": "_date",
          "type": "string"
        }
      ],
      "name": "newItem",
      "outputs": [
        {
          "internalType": "bool",
          "name": "",
          "type": "bool"
        }
      ],
      "payable": false,
      "stateMutability": "nonpayable",
      "type": "function"
    },
    {
      "constant": false,
      "inputs": [
        {
          "internalType": "uint256",
          "name": "_productId",
          "type": "uint256"
        },
        {
          "internalType": "string",
          "name": "_date",
          "type": "string"
        },
        {
          "internalType": "string",
          "name": "_location",
          "type": "string"
        }
      ],
      "name": "addState",
      "outputs": [
        {
          "internalType": "string",
          "name": "",
          "type": "string"
        }
      ],
      "payable": false,
      "stateMutability": "nonpayable",
      "type": "function"
    },
    {
      "constant": true,
      "inputs": [
        {
          "internalType": "uint256",
          "name": "_productId",
          "type": "uint256"
        }
      ],
      "name": "searchProduct",
      "outputs": [
        {
          "internalType": "string",
          "name": "",
          "type": "string"
        }
      ],
      "payable": false,
      "stateMutability": "view",
      "type": "function"
    }
  ],
  "bytecode": "0x6080604052600060015534801561001557600080fd5b50610ea3806100256000396000f3fe608060405234801561001057600080fd5b506004361061004c5760003560e01c80633cde01b51461005157806389c19ddb146100f8578063a3d835c0146102c3578063a4f80e191461042d575b600080fd5b61007d6004803603602081101561006757600080fd5b8101908080359060200190929190505050610602565b6040518080602001828103825283818151815260200191508051906020019080838360005b838110156100bd5780820151818401526020810190506100a2565b50505050905090810190601f1680156100ea5780820380516001836020036101000a031916815260200191505b509250505060405180910390f35b6102486004803603604081101561010e57600080fd5b810190808035906020019064010000000081111561012b57600080fd5b82018360208201111561013d57600080fd5b8035906020019184600183028401116401000000008311171561015f57600080fd5b91908080601f016020809104026020016040519081016040528093929190818152602001838380828437600081840152601f19601f820116905080830192505050505050509192919290803590602001906401000000008111156101c257600080fd5b8201836020820111156101d457600080fd5b803590602001918460018302840111640100000000831117156101f657600080fd5b91908080601f016020809104026020016040519081016040528093929190818152602001838380828437600081840152601f19601f820116905080830192505050505050509192919290505050610907565b6040518080602001828103825283818151815260200191508051906020019080838360005b8381101561028857808201518184015260208101905061026d565b50505050905090810190601f1680156102b55780820380516001836020036101000a031916815260200191505b509250505060405180910390f35b610413600480360360408110156102d957600080fd5b81019080803590602001906401000000008111156102f657600080fd5b82018360208201111561030857600080fd5b8035906020019184600183028401116401000000008311171561032a57600080fd5b91908080601f016020809104026020016040519081016040528093929190818152602001838380828437600081840152601f19601f8201169050808301925050505050505091929192908035906020019064010000000081111561038d57600080fd5b82018360208201111561039f57600080fd5b803590602001918460018302840111640100000000831117156103c157600080fd5b91908080601f016020809104026020016040519081016040528093929190818152602001838380828437600081840152601f19601f820116905080830192505050505050509192919290505050610a50565b604051808215151515815260200191505060405180910390f35b6105876004803603606081101561044357600080fd5b81019080803590602001909291908035906020019064010000000081111561046a57600080fd5b82018360208201111561047c57600080fd5b8035906020019184600183028401116401000000008311171561049e57600080fd5b91908080601f016020809104026020016040519081016040528093929190818152602001838380828437600081840152601f19601f8201169050808301925050505050505091929192908035906020019064010000000081111561050157600080fd5b82018360208201111561051357600080fd5b8035906020019184600183028401116401000000008311171561053557600080fd5b91908080601f016020809104026020016040519081016040528093929190818152602001838380828437600081840152601f19601f820116905080830192505050505050509192919290505050610b9a565b6040518080602001828103825283818151815260200191508051906020019080838360005b838110156105c75780820151818401526020810190506105ac565b50505050905090810190601f1680156105f45780820380516001836020036101000a031916815260200191505b509250505060405180910390f35b606060015482111561061357600080fd5b60606040518060400160405280600e81526020017f50726f64756374204e616d653a200000000000000000000000000000000000008152509050610704816000808681526020019081526020016000206001018054600181600116156101000203166002900480601f0160208091040260200160405190810160405280929190818152602001828054600181600116156101000203166002900480156106fa5780601f106106cf576101008083540402835291602001916106fa565b820191906000526020600020905b8154815290600101906020018083116106dd57829003601f168201915b5050505050610907565b9050610745816040518060400160405280601681526020017f3c62723e4d616e756661637475726520446174653a2000000000000000000000815250610907565b90506107fe816000808681526020019081526020016000206003018054600181600116156101000203166002900480601f0160208091040260200160405190810160405280929190818152602001828054600181600116156101000203166002900480156107f45780601f106107c9576101008083540402835291602001916107f4565b820191906000526020600020905b8154815290600101906020018083116107d757829003601f168201915b5050505050610907565b905060008090505b600080858152602001908152602001600020600401548110156108fd576108ee8260008087815260200190815260200160002060050160008481526020019081526020016000206000018054600181600116156101000203166002900480601f0160208091040260200160405190810160405280929190818152602001828054600181600116156101000203166002900480156108e45780601f106108b9576101008083540402835291602001916108e4565b820191906000526020600020905b8154815290600101906020018083116108c757829003601f168201915b5050505050610907565b91508080600101915050610806565b5080915050919050565b6060808390506060839050606081518351016040519080825280601f01601f19166020018201604052801561094b5781602001600182028038833980820191505090505b5090506060819050600080905060008090505b85518110156109cc5785818151811061097357fe5b602001015160f81c60f81b83838060010194508151811061099057fe5b60200101907effffffffffffffffffffffffffffffffffffffffffffffffffffffffffffff1916908160001a905350808060010191505061095e565b5060008090505b8451811015610a41578481815181106109e857fe5b602001015160f81c60f81b838380600101945081518110610a0557fe5b60200101907effffffffffffffffffffffffffffffffffffffffffffffffffffffffffffff1916908160001a90535080806001019150506109d3565b50819550505050505092915050565b6000610a5a610d54565b6040518060a001604052803373ffffffffffffffffffffffffffffffffffffffff16815260200185815260200160015481526020018481526020016000815250905080600080600154815260200190815260200160002060008201518160000160006101000a81548173ffffffffffffffffffffffffffffffffffffffff021916908373ffffffffffffffffffffffffffffffffffffffff1602179055506020820151816001019080519060200190610b14929190610d99565b50604082015181600201556060820151816003019080519060200190610b3b929190610d99565b506080820151816004015590505060018054016001819055507f64a55044d1f2eddebe1b90e8e2853e8e96931cefadbfa0b2ceb34bee3606194160018054036040518082815260200191505060405180910390a1600191505092915050565b6060600154841115610bab57600080fd5b60606040518060400160405280601181526020017f3c62723e3c62723e3c623e446174653a200000000000000000000000000000008152509050610bef8185610907565b9050610c30816040518060400160405280601281526020017f3c2f623e3c62723e4c6f636174696f6e3a200000000000000000000000000000815250610907565b9050610c3c8184610907565b9050610c46610e19565b60405180604001604052808381526020013373ffffffffffffffffffffffffffffffffffffffff1681525090508060008088815260200190815260200160002060050160008060008a81526020019081526020016000206004015481526020019081526020016000206000820151816000019080519060200190610ccb929190610d99565b5060208201518160010160006101000a81548173ffffffffffffffffffffffffffffffffffffffff021916908373ffffffffffffffffffffffffffffffffffffffff160217905550905050600160008088815260200190815260200160002060040154016000808881526020019081526020016000206004018190555081925050509392505050565b6040518060a00160405280600073ffffffffffffffffffffffffffffffffffffffff168152602001606081526020016000815260200160608152602001600081525090565b828054600181600116156101000203166002900490600052602060002090601f016020900481019282601f10610dda57805160ff1916838001178555610e08565b82800160010185558215610e08579182015b82811115610e07578251825591602001919060010190610dec565b5b509050610e159190610e49565b5090565b604051806040016040528060608152602001600073ffffffffffffffffffffffffffffffffffffffff1681525090565b610e6b91905b80821115610e67576000816000905550600101610e4f565b5090565b9056fea265627a7a723158207cf9771a4ecca3d2412268988edcc4513c219503e289e16b9803d40d3d0212e764736f6c63430005100032",
  "source": "pragma solidity ^0.5.16;\n\ncontract SupplyChain {\n    \n    event Added(uint256 index);\n    \n    struct State{\n        string description;\n        address person;\n    }\n    \n    struct Product{\n        address creator;\n        string productName;\n        uint256 productId;\n        string date;\n        uint256 totalStates;\n        mapping (uint256 => State) positions;\n    }\n    \n    mapping(uint => Product) allProducts;\n    uint256 items=0;\n    \n    function concat (string memory _a, string memory _b) public pure returns (string memory){\n        bytes memory bytes_a = bytes(_a);\n        bytes memory bytes_b = bytes(_b);\n        string memory length_ab = new string(bytes_a.length + bytes_b.length);\n        bytes memory bytes_c = bytes(length_ab);\n        uint k = 0;\n        for (uint i = 0; i < bytes_a.length; i++) bytes_c[k++] = bytes_a[i];\n        for (uint i = 0; i < bytes_b.length; i++) bytes_c[k++] = bytes_b[i];\n        return string(bytes_c);\n    }\n    \n    function newItem(string memory _text, string memory _date) public returns (bool) {\n        Product memory _newItem = Product({creator: msg.sender, totalStates: 0,productName: _text, productId: items, date: _date});\n        allProducts[items]=_newItem;\n        items = items+1;\n        emit Added(items-1);\n        return true;\n    }\n    \n    function addState(uint _productId, string memory _date, string memory _location) public returns (string memory) {\n        require(_productId<=items);\n        string memory desc=\"<br><br><b>Date: \";\n        desc=concat(desc, _date);\n        desc=concat(desc, \"</b><br>Location: \");\n        desc=concat(desc, _location);\n        \n        State memory newState = State({person: msg.sender, description: desc});\n        \n        allProducts[_productId].positions[ allProducts[_productId].totalStates ]=newState;\n        \n        allProducts[_productId].totalStates = allProducts[_productId].totalStates +1;\n        return desc;\n    }\n    \n    function searchProduct(uint _productId) public view returns (string memory) {\n        require(_productId<=items);\n        string memory output=\"Product Name: \";\n        output=concat(output, allProducts[_productId].productName);\n        output=concat(output, \"<br>Manufacture Date: \");\n        output=concat(output, allProducts[_productId].date);\n        \n        for (uint256 j=0; j<allProducts[_productId].totalStates; j++){\n            output=concat(output, allProducts[_productId].positions[j].description);\n        }\n        \n        return output;\n    }\n    \n}\n",
  "sourcePath": "C:\\xampp\\htdocs\\contracts\\smartcontract.sol",
  "compiler": {
    "name": "solc",
    "version": "0.5.16+commit.9c3226ce.Emscripten.clang"
  },
  "schemaVersion": "3.2.2",
  "updatedAt": "2020-07-15T03:17:02.825Z",
  "devdoc": {
    "methods": {}
  },
  "userdoc": {
    "methods": {}
  }
}